:020000040800F2
:10000000880A002001010008B10B0008B10B0008AC
:10001000B10B0008B10B0008B10B00080000000094
:10002000000000000000000000000000B10B00080C
:10003000B10B000800000000B10B00081901000816
:100040001B0100081B0100081B0100081B01000820
:100050001B0100081B0100081B0100081B01000810
:100060001B0100081B0100081B0100081B01000800
:100070001B0100081B0100081B0100081B010008F0
:100080001B0100081B0100081B0100081B010008E0
:100090003D3000081B0100081B0100081B0100087F
:1000A0001B0100081B0100081B0100081B010008C0
:1000B0001B0100081B0100081B0100081B010008B0
:1000C0001B0100081B0100081B0100081B010008A0
:1000D0001B0100081B010008291800081B0100086B
:1000E0001B0100081B0100081B010008DFF80CD0F1
:1000F00000F02AF80048004791310008880A0020E3
:100100000648804706480047FEE7FEE7FEE7FEE7B1
:10011000FEE7FEE7FEE7FEE7FEE7FEE7A1160008C2
:10012000ED00000840EA01039B0703D009E008C97D
:10013000121F08C0042AFAD203E011F8013B00F8AC
:10014000013B521EF9D27047064C074D06E0E068AD
:1001500040F0010394E8070098471034AC42F6D30E
:10016000FFF7C8FF0437000824370008104810B50F
:10017000816941F01D01816101210E4800F0ECFC14
:100180000D490E4800F09CFC0B490D4C091D204602
:1001900000F096FC08490B48083100F091FC064934
:1001A00020460C3100F08CFCBDE8104000F034BD5E
:1001B0000010024000023000F43600080008014040
:1001C000000C01400010014070B500240D4621468E
:1001D00009282AD006DC052827D2DFE800F02626E9
:1001E00026261000FC2820D002DCF0281DD10DE0CE
:1001F000FD281AD0FE2815D0FF2816D10DE00624C0
:1002000022460B492846FFF78DFF0EE0094800689B
:1002100000B1202040F0110000E0402028706970FB
:10022000022402E0042028700124204670BD000052
:1002300010350008000000202DE9F8430278A2F1F3
:1002400080031F2B03D800F023F9BDE8F88301F8E1
:10025000012B0C4610F801CB0025FF21844F854A65
:10026000DFF814824FF001094FF00116BCF11E0FA8
:100270007AD2DFE80CF00F172A41A3ACC8F8E447A4
:1002800056F8F8F8F8F85A5E697A879EA1F8F8F8F7
:10029000F8F8F8830078611CFFF796FF207000F1F2
:1002A0000210D2E7027822B1012A08D02170384624
:1002B000CAE0407800F0010000F0C2FC2FE0407876
:1002C00000F0010000F0C8FC29E0057825B1012DFF
:1002D00003D00025257035E00125684882F800909C
:1002E0006749006800904FF4C04008606448694660
:1002F000103800F0E5FBEDE7157000F037FD2570D4
:100300004846A1E001885F485F4A0068B0FBF2F010
:10031000801C0322B0FBF2F04843401EFDD1257043
:10032000C5E76570257002208EE0214600F0FCFADA
:100330008AE0C2780068554E62F31F60C0B301F0D6
:1003400055F9C7E730467FE010F8016B0EB94FF45E
:1003500080760146304601F0C5F8F61D2570F0089C
:10036000000400F101106FE07DE0007800F003016F
:10037000491C1176C0F380005076ABE7214600F0AF
:100380008DF861E021700122144610F8013B0AE06B
:1003900010F8011B11F03F0100D14021C91DC9080F
:1003A0000A440844521C5B1EF2D244EA02404BE06D
:1003B00002E000782170D3E72170C3E70178117360
:1003C000B0F801101182B0F80300508249E01278B1
:1003D0002146012A14D0064610F8012F00F1010031
:1003E00042B110F8013B9C0701D5DB0600D5001D8A
:1003F000521EF6D1801B0D7000044D70801C23E04E
:1004000000F090F820E0064610782146012809D037
:100410000D704D70A5700321F078800707D541F469
:10042000802011E0304600F0F1F90146F4E7B6F81B
:1004300001004FF4802202EB8040084304E0127870
:10044000012A04D02170404600F10110FDE6017937
:10045000D0F8010061F31F6000906946002000F0B1
:100460005DFD2570EFE704F8011C3046EDE6000065
:100470000100020000010020010005000435000811
:10048000100C01400000002040420F000100040059
:1004900000784FF001120870104670472DE9F047C0
:1004A000002201F8012B012510F8018B8A46A9468C
:1004B00004462DE014F8017B17F03F0000D14020E6
:1004C00000F107004FEAD00638060CD51448016841
:1004D00021F0706141F00061016011494FF48040EA
:1004E0000C31086001E000F029FC524621463846F4
:1004F00000F0BAFCB8F1000F01D100F01FFC380683
:1005000003D56D1CB244B14402E0354434446D1C43
:10051000B8F10108CED249EA0540BDE8F0870000F5
:10052000040C01402DE9F04F87B004460590DFF838
:10053000D4A20020CDE9010101F102058AF80000F2
:10054000039094F80190064604F102040BE114F8BC
:10055000017BA9F10109B9077ED596B3AA48B0F885
:10056000108007F01100012807D0564669460E207A
:1005700000F0D4FC02280ED013E06946384600F0A3
:10058000CDFC02280ED1B8F1010803D39AF800106F
:100590000029F2D0F5E0B8F1010802D33178002942
:1005A000E4D000260128F5D1009929704FEA1122E4
:1005B0006A704FEA1142AA704FEA1161E97005F1C1
:1005C0000405F9064ED5E17854F8040B61F31F6079
:1005D00004908D48B0F812B0F80713D08A48B0F8EC
:1005E00010800021384600F099FC022802D0012832
:1005F000D0D107E0B8F10108CCD39AF80010002957
:10060000EFD0BEE08048B0F810806946384600F070
:1006100085FC022802D0012816D107E0B8F10108B4
:1006200012D39AF800100029EFD00DE07649009A15
:1006300049691140049A914206D0BBF1010B03D3E2
:100640009AF800100029DDD06F49009A49691140DD
:10065000049A914203D000E039E040F010000128F4
:1006600016D132E06849B1F81080F90713D066BBA3
:100670000021384600F052FC022802D0012807D1A0
:1006800007E0B8F101087CD39AF800100029EFD0F8
:1006900077E0012619E06946384600F03FFC022861
:1006A00002D001286DD107E0B8F1010869D39AF8AA
:1006B00000100029EFD064E0009929700A0A6A70DE
:1006C0000A0CAA70090EE9702D1D002144E016B332
:1006D0004D48B0F8108069460E2000F01FFC02283B
:1006E00002D001284DD107E0B8F1010849D39AF8AA
:1006F00000100029EFD044E0009828704FEA102144
:1007000069704FEA1041A9704FEA1060E87005F176
:1007100004054FF00006E17854F8040B61F31F6004
:100720000090B90603D538494861012015E03648E4
:10073000B0F810806946384600F0F0FB022802D07D
:1007400001281ED107E0B8F101081AD39AF8001069
:100750000029EFD015E0012103910199491C019175
:100760009AF8001069B9B9F1000F7FF4F0AE0BE010
:1007700014F8011BA9F101098A0701D5C90600D5A2
:10078000241DB9F1000FF3D101282CD1DEB11E4890
:100790005746068A69460E2000F0C0FB022802D0A8
:1007A000012820D105E0761E1DD339780029F1D02B
:1007B00019E0009929700A0A6A700A0CAA70090ED9
:1007C000E9702D1D0FE0039969B10F485746068A5D
:1007D00000210E2000F0A2FB022804D1761E02D3D5
:1007E00039780029F4D0DDE90112117002994870BE
:1007F0000298291A059807B0201A41EA0040BDE87E
:10080000F08F000014000020000100202DE9F84FB7
:100810000025DFF80C81064628468A46CF1C88F85A
:100820000050B6F80140F61C002C6DD016F8019B64
:10083000DFF8F0B05FEA897155D55FEAC97133D04E
:10084000BBF810600021484600F068FB022802D087
:10085000012859D128E0761E56D398F800100029B7
:10086000F0D051E024B95FEAC97001D04FF00E0911
:10087000BBF810606946484600F050FB022802D0E1
:10088000012841D106E0761E3ED398F800100029D9
:10089000F0D039E0009939700A0A7A700A0CBA70FF
:1008A000090EF9703F1D6D1C641EDBD22CE0F1783F
:1008B00056F8040B61F31F6000901A48B0F81080DE
:1008C0006946484600F02AFB022802D001281BD1C5
:1008D00007E0B8F1010817D39BF800100029EFD00A
:1008E00012E06D1C00E0C346641EE0D20D485E4677
:1008F000048A00210E2000F011FB022804D1641E9E
:1009000002D331780029F4D08AF800502A0A8AF8F4
:1009100001208AF80200A7EB0A00BDE8F88F00006A
:1009200014000020000100202DE9F35F05784478D1
:100930004179D0F80200354A61F31F60E10702F106
:10094000040306D0EE074FF4005101D0116000E01F
:100950001960A10706D5AE074FF4804101D511609B
:1009600000E0196021060AD5294AE909C90711687A
:1009700021F00F0101D0091D00E0C91D1160DFF851
:100980008C900021A9F10409A9F1040B58B3214866
:100990000127466888468246E00705D0D9F800005E
:1009A000C0F34030A84219D1A00706D5DBF80000FB
:1009B000C0F38030B0EB550F10D1600702D5B8EB13
:1009C000950F0BD1A00602D5B8EB551F06D1200616
:1009D00009D500F0C3F9B0EBD51F04D0DAF8040054
:1009E000801BB842D8D3D9F80000DBF80010C0F360
:1009F0004030C1F3803140EA410400F0AFF9019981
:100A000044EAC01008700448BDE8FC9F100C014087
:100A1000000C0140001000E001000600094810B57C
:100A2000002101700173642202824182012241612E
:100A300002764176044800F0D9FDBDE8104000F090
:100A400095B900000001002040420F0006494FF414
:100A50007A720968B1FBF2F1891C0622B1FBF2F14E
:100A60004143491EFDD1704700000020074A00F0B5
:100A70000F0102EB81021168000602D548F6CF7023
:100A800001E04CF68F70014011607047005C00403F
:100A90000A4B00F00F0203EB82021368000605D533
:100AA00001F03000584048F6BF7104E001F44050B6
:100AB00058404BF68F71084010607047005C004052
:100AC000F0B5CC78002204F00F03E40601D58C7851
:100AD00023430C784FF00F0C4FF0010EDCB105688A
:100AE0000E880EFA02F42640A64210D196000CFAA7
:100AF00006F725EA070703FA06F5CE783D43282EC8
:100B000002D0482E02D002E0446100E00461521C91
:100B1000082AE5D305600A88FF2A1CD94468002208
:100B200002F108060EFA06F50E882E40AE420ED1EE
:100B300096000CFA06F7BC4303FA06F7CE783C435E
:100B4000282E00D14561CE78482E00D10561521C77
:100B5000082AE5D34460F0BDF0B5144C002801DA52
:100B6000E36900E06368450D2E0185B2C0F30157CB
:100B7000B540C0F30342032F05D0C6020AD50326B1
:100B80009640B34307E023F07062636823F070631C
:100B9000636002E0AB4343F0706201B12A43002876
:100BA00001DAE261F0BD6260F0BD000000000140CA
:100BB00072B61548006880F3088800F02DF8134CD1
:100BC0000023251F4FF4807766154FF47A7827604D
:100BD000FA20FFF73BFF2F602660FA20FFF736FF71
:100BE0002E604046FFF732FF5B1C052BEFDBBFF3A7
:100BF0004F8F07490868074A00F4E0601043086017
:100C0000BFF34F8FFEE7000000000008140801400A
:100C10000CED00E00400FA050648816941F004018A
:100C2000816105494FF44070086003480349143856
:100C3000FFF746BF0010024014080140F0360008DC
:100C4000C1074FF4007001D0024901E00149091FBA
:100C50000860704714080140C1074FF4007001D0CC
:100C6000024901E00149091F08607047140801406A
:100C700070B5002400F050FD410700D540248107E5
:100C800001D544F04004C00701D044F0100400F046
:100C900057FD010701D544F00804410701D544F090
:100CA0000204800701D544F0010400F021FD08B1E1
:100CB00044F00404054D2868844205D0204601F024
:100CC0001FF8002800D02C6070BD000050000020EC
:100CD00003480068400401D5012070470020704798
:100CE000080C0140C1074FF4804001D0024901E0E7
:100CF0000149091D08607047100C01400648016851
:100D000021F0706141F00061016003494FF48040BF
:100D10000C31086070470000040C0140064801686F
:100D200021F0706141F04071016003494FF480404F
:100D30001031086070470000040C0140064801684B
:100D400021F0706141F04071016003494FF480402F
:100D50001031086070470000040C01400248006830
:100D6000C00700D001207047080C01401CB507489F
:100D7000074C416800918068019069462046FFF762
:100D80009FFE01A92046FFF79BFE1CBD043500080D
:100D9000000C0140044A0029D16901D0014300E060
:100DA0008143D1617047000000100240044A0029CD
:100DB000916901D0014300E08143916170470000D7
:100DC0000010024030B5224A5168224B11F00C014C
:100DD00003D0042903D0082903D0036016E01E497C
:100DE00013E05168536801F470114FF0020413F4DA
:100DF000803F04EB914104D053689B0303D5174B0C
:100E000002E0174B00E0144B5943016051680F2377
:100E100003EA1111134B5C5C0168E14041605468C6
:100E2000072505EA14241C5D21FA04F48460546843
:100E300005EAD4241B5DD940C1605268032303EA4C
:100E40009232084B1B1F9A5CB1FBF2F1016130BD7D
:100E50000010024000127A00001BB700808D5B007A
:100E600000093D00680000202DE9F05F16460F469E
:100E700010F03F0400D14024DFF898A00006AAF14A
:100E8000040B21D443E00027082518E04FF4005953
:100E9000CAF80090DFF88080D8F80400401EFDD129
:100EA000FFF716FFCBF80090D8F80410491EFDD1CB
:100EB000790841EAC0176D1EA4F1010401D0002C8D
:100EC000E4D1EF4006F8017B002CDCD1BDE8F09FB7
:100ED00017F8016B08254FF40058DFF83C9013E039
:100EE0003046FFF7FFFE4246CAF80080D9F80400FA
:100EF0000146401EFDD1CBF80020491EFDD17608E9
:100F00006D1EA4F1010402D0002CE9D1DEE7002C13
:100F1000DED1DBE7140C014000010020034A5278C7
:100F20000AB100F005B800F009B900000001002086
:100F30002DE9F35F04460120FFF7D4FE7C4E4FF409
:100F400000553560371F3D602046FFF7CBFE35600A
:100F50003D6060088046FFF7C5FE35603D60A10832
:100F600004EB080988460846FFF7BCFE35603D6083
:100F7000E108C14488460846FFF7B4FE35603D608D
:100F800009EB0800FFF7AEFE35603D600020FFF77B
:100F9000A9FE35603D600120FFF7A4FE35603D608D
:100FA000FFF7ACFE6348007E18B135603D60401E1F
:100FB000FBD1A946B3463560FFF78AFEBA463D60CD
:100FC0000646CBF80050FFF783FE3D6046EA400638
:100FD000CBF80050FFF77CFE3D6046EA8005012D0E
:100FE00011D0022D77D0042D75D05248007E2130CB
:100FF00006D049465B46524619601160401EFBD13F
:10100000FFF78CFE8EE0A0072CD54FF00008474676
:101010002026CBF80090FFF75BFECAF800904FEA5D
:101020005801074441EAC078761EF2D14E46CBF80B
:101030000090FFF74DFE5146CAF800604740F807A0
:1010400000D00825019810B1019AC2F800803948F3
:10105000007E20B15A4616600E60401EFBD1FFF79D
:101060005DFE23E03348007E30B149465B46524680
:1010700019601160401EFBD1FFF750FE01984FF040
:101080000008202706683046FFF72CFECBF80090BA
:10109000CAF8009008EB0600760880467F1EF2D161
:1010A000FFF720FECBF80090CAF80090200603D589
:1010B000214840681F4988601E48047B94B3002083
:1010C000FFF710FE48465946524608601060641EFD
:1010D000FBD127E0FFE7174E707E48B1A00707D588
:1010E000212049465A46534611601960401EFBD1E3
:1010F000307E30B149465B46524619601160401E51
:10110000FBD1FFF70BFE707E60B1A0070AD4002070
:10111000FFF7E8FD212049465B4652461960116001
:10112000401EFBD10120FFF7DDFDE8B2BDE8FC9FCA
:10113000140C014000010020001000E02DE9F35FD5
:10114000044600250120FFF7CDFDDFF88C834FF426
:101150000056C8F80060E14A50680146491EFDD1BA
:10116000DD4F3F1F3E609146401EFDD12046FFF7F8
:10117000B9FDC8F80060D9F804104A460846401E78
:10118000FDD1BA463E60491EFDD12F19650828469B
:10119000FFF7A8FDC8F80060D9F804004A460146E8
:1011A000401EFDD1B146CAF800609346491EFDD1EC
:1011B000A6082F443046FFF795FD4D46C8F800902D
:1011C000DBF804005A460146491EFDD1CAF800501A
:1011D000401EFDD13744E6083046FFF783FDC14687
:1011E000C8F80050DBF804005A460146401EFDD105
:1011F000D046CAF80050DA46491EFDD1B819FFF7AB
:1012000071FD4F46C9F80050DAF804005246014615
:10121000401EFDD14646C8F80050D046491EFDD1BB
:101220000020FFF75FFD3D60D8F80400424601460C
:10123000491EFDD13560401EFDD10120FFF752FD52
:101240003D60D8F8040042460146491EFDD1356094
:10125000401EFDD1FFF752FD98F8181059B1D8F88B
:1012600004203D601046401EFDD135601046401EF2
:10127000FDD1491EF5D1A946BA463D60D8F8040013
:10128000401EFDD1FFF724FD05464F46C6F80090ED
:10129000D8F804100846401EFDD1CAF80070491E57
:1012A000FDD1FFF715FD02463760D8F8040001466E
:1012B000491EFDD145EA4205D346CAF80070401EDA
:1012C000FDD1FFF705FD0246BA46B14637608348B7
:1012D00040680146491EFDD145EA8205012D17D01F
:1012E000022D7DD0042DFCD07C490A7E21320CD009
:1012F0005C4653464E4623600146491EFDD133608D
:101300000146491EFDD1521EF5D1FFF707FDDCE075
:10131000A10745D54FF0000847462026CBF800A08E
:101320006E484068401EFDD1FFF7D2FC0146C9F867
:1013300000A06A484068401EFDD14FEA58000F44A3
:1013400040EAC178761EE9D15646CBF800A0634842
:101350004068401EFDD1FFF7BBFC02464B46C9F872
:1013600000605E494868401EFDD15740F80700D034
:101370000825019810B1019AC2F800800A7E62B176
:10138000D1F804C05F463E606046401EFDD11E603D
:101390006146491EFDD1521EF5D1FFF7BFFC3BE06F
:1013A0004E490A7E62B15E4653464F46336001465F
:1013B000491EFDD13B600146491EFDD1521EF5D1AB
:1013C000FFF7ACFC01984FF0000820270668304674
:1013D000FFF788FC5246CBF800A04048406800E088
:1013E00035E00146401EFDD1C9F80020491EFDD15F
:1013F00008EB0600760880467F1EE8D1FFF772FCF6
:101400005246CBF800A0354840680146491EFDD140
:10141000C9F80020401EFDD1200603D530484068A1
:101420002E4988602D4E347BECB30020FFF75AFC28
:1014300076685A4651464B4611603046401EFDD1F3
:1014400019603046401EFDD1641EF5D13DE0234EAB
:10145000717E81B1A1070ED521225F465346CC464D
:101460003B600146491EFDD1CCF800300146491EC3
:10147000FDD1521EF4D1327E6AB15F465346CC464E
:101480003B600146491EFDD1CCF800300146491EA3
:10149000FDD1521EF4D1FFF741FC707E18B1A007B8
:1014A00013D4002000E010E0FFF71CFC7668212137
:1014B0005B4652464C461A603046401EFDD12260C3
:1014C0003046401EFDD1491EF5D10120FFF70AFC30
:1014D000E8B2BDE8FC9F0000140C014000010020B0
:1014E000001000E0F0B5144C0023DFF848C04FF4C2
:1014F00080471A46ACF1040E7E10656816E012B9FA
:1015000011F8013B0822DC0702D0CEF8007001E0A0
:10151000CCF80070CCF800602C46641EFDD1CEF8EB
:1015200000602C46641EFDD15B08521E401EE6D2B0
:10153000F0BD0000140C01400001002008B529484E
:1015400000230093016841F4803101604FF6FF7180
:101550000268920302D4009A8A42F9D10168890391
:1015600006D4016821F4803101600121009100E07E
:1015700000931D490A6842F010020A600A6822F0CE
:1015800003020A600A6842F002020A604168416090
:1015900041684160416841F480614160416821F4E3
:1015A0007C11416000990029416802D041F4D001CA
:1015B00001E041F488114160016841F080710160EF
:1015C00001688901FCD5416821F00301416041684F
:1015D00041F0020141604168C1F381010229FAD161
:1015E00008BD000000100240002002400C490D4AD6
:1015F0000968B0EB910F02D3012050700DE000EBB1
:101600005101491EB1FBF0F000235370022803D9A9
:101610000321B0FBF1F000E00120506070470000B2
:101620000000002000010020174A10B55068174B39
:1016300010F00C01164803D0042903D0082903D068
:10164000036016E0134913E05168536801F4701108
:101650004FF0020413F4803F04EB914104D053682F
:101660009B0303D50C4B02E00C4B00E0094B5943A4
:1016700001605168064AC1F30311121D515C0268F2
:10168000CA40026010BD00000010024000127A0043
:1016900000000020001BB700808D5B0000093D00AA
:1016A0000F4810B5016841F00101016041680D4A21
:1016B0001140416001680C4A11400160016821F449
:1016C00080210160416821F4FE0141604FF41F0157
:1016D0008160FFF733FF05494FF00060086010BDDF
:1016E000001002400000FFF8FFFFF6FE08ED00E0EA
:1016F00001488068704700002800002008B50121DB
:10170000684600F02DF8012802D04FF0FF3008BDE8
:101710009DF8000008BD0000084A00201168CB07B2
:1017200000D002204B0701D540F004009268002A47
:1017300003D1890701D540F002007047280000203E
:101740000020704701B50121684600F045F80128E6
:1017500002D04FF0FF3008BD9DF8000008BD00002A
:1017600030B5044600200D4A15E0491EB2F9043098
:1017700089B2B2F90650AB420DD05388D5185B1C24
:1017800053802B7A04F8013B5388DBB25380D38813
:101790005B1CD380401C0029E7D130BD70030020C2
:1017A00070B50B4D40242C600A4900200822486087
:1017B00088600C3108718A7148714FF4E13008601B
:1017C000084600F0F1FA45F8804C012070BD000099
:1017D00084E100E02800002070B50024104A13E0E6
:1017E000491E938889B2D5885B1B1BB2FF2B0BDC8B
:1017F000138810F8015BD6185B1C3572DBB21380BE
:1018000093885B1C9380641C0029E9D12CB10122D0
:1018100040F22771034800F0A3F8204670BD000095
:1018200068020020004400402DE9F041304E30466F
:101830003188304C216040F2255100F072F818B325
:101840002D4DA888E9880027401A00B2FF281CDC2B
:10185000304600F0F7F810F0FF01288805EB000291
:1018600000F101002880117207D10221304600F0FA
:1018700051F810B10120A06000E0A7602888C0B234
:101880002880A888401CA88003E0AF80EF802F80CC
:101890006F8040F227752946304600F042F8002854
:1018A00017D06068012816D0144CB4F90400B4F9BC
:1018B0000610884214D060882118401C6080097A84
:1018C000304600F0C8F86088C0B26080E088401CF4
:1018D000E080BDE8F0813046BDE8F04100F0B6B8E8
:1018E00029463046BDE8F041002200F039B800003A
:1018F00000440040280000207003002068020020FF
:101900000029818902D041F4005101E021F4005105
:10191000818170470246002012880A4200D00120CF
:10192000704770B501F01F0501260024C1F3421372
:1019300006FA05F2012B0FD0022B0FD0838A4FEA53
:1019400011210088134206FA01F600EA060001D0D0
:1019500000B10124204670BD8389F0E7038AEEE7D9
:1019600010B5C1F3421301F01F040121A140012B66
:1019700007D0022B07D01430002A026805D00A4392
:1019800004E00C30F8E71030F6E78A43026010BD3F
:1019900030B50446008A85B00D464CF6FF7108400C
:1019A000E98801432182A0894EF6F3110840A988F5
:1019B0002A8911436A8902431143A181A08A4FF603
:1019C000FF410840A9890143A1826846FFF7FAF95F
:1019D0001B48844201D1039800E00298A1890904C0
:1019E000002900EBC00101EB0010296802DA4FEA80
:1019F000410101E04FEA8101B0FBF1F06422B0FB4C
:101A0000F2F14FEA01114FEA11136FF018056B4321
:101A100000EB8300A3891D044FF0320306D503EBCE
:101A2000C000B0FBF2F000F0070005E003EB00108F
:101A3000B0FBF2F000F00F000843208105B030BD8C
:101A4000003801408088C0F308007047818941F068
:101A5000010181817047C1F3080181807047002036
:101A60007047000070B50B4D0C460346D5E90C01DC
:101A700088420BD9401A844200DD044622461846AB
:101A8000FEF750FB686B2044686300E000242046AA
:101A900070BD000078000020002070472DE9F04163
:101AA000194F0C460646D7E90401401A17490A881F
:101AB000101A002802DC0020BDE8F081844200DD1D
:101AC0000446D7E906020025904210D3104B09883E
:101AD000021919448A420AD90D1A98462A463146F3
:101AE000FEF720FB2E44641B4046C7F8188034B133
:101AF00022463146FEF716FBB8692044B8613969C1
:101B0000601901443961D7E77800002032350008B8
:101B1000DE01002010B5054C6068002805D10120C9
:101B2000606000F005F80020606010BD78000020C3
:101B30002DE9F047244EB06800283CD0D6E90401D6
:101B4000441AF0684FF0000A204336D01F48204F57
:101B5000D6E906210388FD18914202D898B2844242
:101B600003D10819A84200D96C1ADFF86C90DFF88D
:101B7000648099F8002038F81200A04200DA044688
:101B800016482246007840F0800001F027FAF069FC
:101B90002044F061716985422144716100D1F7618F
:101BA000306988420CD199F8001038F81100A04231
:101BB00006D10120F060BDE8F087C6F808A0FAE77A
:101BC000C6F80CA0F7E700007800002032350008C6
:101BD000DE01002036350008BB0000202F3500084C
:101BE00010B50B4C206A18B1A06A401CA06210BD51
:101BF00001202062606200F00DF800206062206227
:101C0000D4E90C018842F2D0401AFFF745FF10BD1D
:101C10007800002010B5134C144A1348216B128829
:101C2000144B081A101A124A1B7832F813209042EB
:101C30000EDB1148007800F031FE216B0844206370
:101C4000A06A00280CD0616A002909D1401E06E074
:101C50000120E062606A002802D0A06A401CA062F5
:101C600010BD0000780000201E020020343500085E
:101C700036350008BB0000203035000810B504469A
:101C8000400702D52046FFF7ABFF200704D52046CA
:101C9000BDE81040FFF73EBF10BD704708B50121F9
:101CA0006846FFF7DFFE012802D04FF0FF3008BD85
:101CB0009DF8000008BD002070470020704700001C
:101CC00010B50B4800F042F8002810D0084A094827
:101CD000116801700B0A43700B0C8370090EC17000
:101CE000117901715179417191798171012010BD92
:101CF000B00000201C01002010B500F035F810BD28
:101D00000F4910B50978C1B10E49A12202230A700A
:101D100020224A7000228A70CA700A714A718B713F
:101D2000CA710872000A487207480A22007840F017
:101D3000800001F053F9012010BD002010BD00000B
:101D4000B90000205E0200202E35000805490A79FE
:101D500002718A7982714A794271096801600120B1
:101D6000704700003400002010B501210846FFF73D
:101D70001DF801214804FFF70DF8FFF711FD074C8E
:101D800005492046FEF79CFE03492046091DFEF743
:101D900097FE012010BD0000E03600080008014059
:101DA000FFF7FEBC0120704710B582792049082A50
:101DB00016D100238B80427922B1012A07D0022A52
:101DC0000ED101E00B8105E04FF4806201E04FF499
:101DD000C0620A8102792AB1012A08D0022A03D0FE
:101DE000002010BDCB8005E04FF4005201E04FF41D
:101DF0004052CA800F4A04791471847994714479ED
:101E0000547104681460006808600C2048810A4C12
:101E10008B812046FFF7BCFD012240F22551204670
:101E2000FFF79EFD01212046FFF76AFD012010BD4E
:101E300078040020340000200044004001B5012156
:101E40006846FFF72BFE012802D04FF0FF3008BD97
:101E50009DF8000008BD000010B51048002410498E
:101E600044608460C4600461C0E90541C0E90714AE
:101E700044620C498462C0E90B4141630480FFF76E
:101E80008FFF06484FF416513830016004714471D9
:101E900008218171FFF788FF10BD00007800002045
:101EA000DE0100201E02002010B5FFF7D5FF10BD97
:101EB00070B5174C00250126206A50B9D4E90C01F1
:101EC000884206D11349884203D02163E562256226
:101ED0006163A06A70B1206A60B9E06A50B9266295
:101EE000FFF798FE2562D4E90C01884202D0401A1F
:101EF000FFF7D2FDD4E90101084308D1D4E9040178
:101F0000884204D06660A660FFF712FE656070BD6F
:101F1000780000201E02002000207047002070473B
:101F200000207047024910B50880FFF73BFF10BD45
:101F300078000020084810B5C178026861F31F627C
:101F400006490A6002790A7142794A71807988717A
:101F50000846FFF729FF10BD1C010020B00000203B
:101F600000B50346FEF782FD43F2300118465DF8E6
:101F700004EBFEF78DBD0000F0B582781F4D02F036
:101F80000F0316066F6881882C8802F00F0207EB9A
:101F9000021204D5491C21F00101146011E0946083
:101FA0003E2909D91F3121F01F014FF0FF3404EB06
:101FB000411444F4004403E0491C21F001014C02A7
:101FC000D4602A880A442A80C07810F0030006D022
:101FD000012807D0022808D003280AD107E04FF4CF
:101FE000007106E04FF4806103E0002101E04FF44E
:101FF000C0610348194340F82310F0BD20000020C1
:10200000005C0040002802D10149C02008807047D0
:102010002000002000F008BA70B50C4CE61378B12F
:102020000120206001F092F8002525600A2001F0CF
:102030008DF8201D05604FF4E0502060044803E057
:10204000032020600248001D066070BD405C004017
:102050001008014010B50B4C0B48A28801788A4249
:1020600000D9CAB21AB90749002014390871802072
:10207000216800F0B3FF216801442160A188081A9B
:10208000A08010BDCC0000201A35000810B5064C09
:102090000020216800F002FC216801442160A18831
:1020A000081AA08010BD0000CC000020704700215D
:1020B000FEF7EEBC43F22001FEF7EABC2DE9F04743
:1020C000614D044680074FF00009A5F10807A5F10E
:1020D0001C0671D500F05AFF2878C009FFF7E6FF0B
:1020E000E888B8802878C0F3411111B1012957D18F
:1020F00048E06978DFF854810C2951D2DFE801F01B
:10210000060C501250172650292C333700F0F6FCDD
:102110002BE0FFF79FFF4FE0002004E000F03CFFC2
:1021200040462AE0012000F027FDC8B3F6E710F092
:102130001F0F35D1A878012140F08000307000F0E9
:102140007F0000F015FF00F027FF35E000F0DCFB1A
:102150000BE000F0C9FB08E000F05EFD00B300F00A
:102160001BFF3B4809E000F0ADFCC8B1D1E700F02F
:1021700017FEA8B100F010FF36480168E1B108462B
:10218000804719E010F01F000AD0012808D100F0A4
:10219000F3F888B900F046F970B900F09DF858B925
:1021A0002878000603D4E88808B1002000E08020E9
:1021B00000F0E8FEA7F80490600721D52878000613
:1021C0001CD4B888E0B1FFF761FFB888C0B928789F
:1021D000C0F3411161B101290AD110F01F0007D0ED
:1021E000012805D100F060F850B900F035F838B991
:1021F000802000F0C7FEA7F8049001E000F0D2FEB6
:10220000200712D52878000606D5B888317908430A
:102210000BD0FFF71FFF08E03078010605D500F06E
:102220007F003070002100F0A3FE600602D5002080
:10223000FFF796FE200604D5BDE8F0478020FFF7A3
:102240008FBEBDE8F0870000D4000020983500085C
:10225000903500089435000810B51049104A0879E7
:102260001278904203D00F4A1278904214D14878E5
:1022700020B1022805D020280ED10AE0FFF74EFE3B
:1022800002E04888FFF74CFE30B100F085FE0120E7
:1022900010BDFFF74FFEF7E7002010BDD40000206F
:1022A0002C3500082D35000810B50948094A017978
:1022B0001278914209D14078092806D100F0B0FA8D
:1022C00018B100F069FE012010BD002010BD000013
:1022D000D40000201B35000870B52249224A087935
:1022E0001278904203D0214A1278904237D11D488B
:1022F00049781F4C1F4D408804291FD007DC79B155
:1023000001290FD002290BD0032928D111E020295F
:1023100006D0212919D022291AD023291FD11AE049
:102320002C6010E0FFF7C9FC05E02C60FFF792FE7F
:1023300009E0FFF7C0FC0028F7D110E0FFF78FFBA2
:102340000BE000F029FE012070BDFFF7B9FCF2E7B9
:10235000FFF7E8FD01E0FFF7DFFD0028F1D10020E5
:1023600070BD0000D40000202C3500082D35000879
:102370001C010020CC0000202DE9F041224E234911
:102380003079097888423CD17078214C214D224F18
:102390000C2836D2DFE800F03506212C35353535EE
:1023A0003516243100F058F958B3F078012802D0DE
:1023B000032803D003E01948206000E02560FFF700
:1023C00049FE12E0F078022802D0032803D00CE086
:1023D0001348206009E0256007E000F025F909E0D6
:1023E00000F0F6F90BE000F0D7FD0120BDE8F08128
:1023F00000F028F928B12760E1E700F007FA00288B
:10240000F1D10020F2E70000D40000201B350008C5
:10241000CC0000201E0000201C0100205D010020D7
:102420009E01002000207047064800214170C160D5
:1024300001614161418081808161C161C18001622E
:1024400001817047DC0000202DE9F047474EB0883D
:102450007188484FDFF818817D1C0024884216D30C
:10246000B069A0B97461B480012339787A1C184628
:1024700000F034FF7080708848B1776198F80000F0
:10248000012801D8756102E07088401C7080708856
:102490004FF00109B0BBF06808B1F46032E0316977
:1024A00081B398F8000001280DD83C70B480022355
:1024B0007A1C0021012000F011FF7080708800B1AB
:1024C000756134611EE03D78C846202D00D300259B
:1024D00008FA05F0084244D0681CC1B23970B480D3
:1024E00002237A1C012000F0F9FE7080708818B178
:1024F00077617088401C7080306908FA05F820EA1E
:10250000080030617088B169084328D07088B188AC
:10251000DFF86880401A85B2174F98F8000037F846
:102520001000A84200D2054615482A467169007875
:1025300040F0800000F052FD70691249284470613B
:10254000B088284480B2B080098888420CD298F8BC
:10255000000037F81000A84206D1C6F81890BDE870
:10256000F0876D1CEDB2B0E7B461F8E7DC00002045
:10257000263500085C01002022350008BB00002041
:102580001C35000828350008F8B5184C184D0026F1
:10259000E08800B9E5611748E169007800F07EF94C
:1025A0000004E169000C0144E161E18801448BB25F
:1025B000E3800AD0104909888B4206D2104A0F499D
:1025C000127831F8121081420FD90E48017801209B
:1025D0000129009002D8064A002102E029785B1EFA
:1025E0006A1C022000F040FFE680F8BDDC000020FD
:1025F0009D0100201D3500082A35000822350008FD
:10260000BB0000202735000810B50446000702D59E
:102610002046FFF719FF600704D52046BDE81040AB
:10262000FFF7B2BF10BD0000034804498078085C82
:102630000349087001207047D40000201C000020CE
:102640001C01002010B500F047FE0249087001206F
:1026500010BD00001C0100200B4910B5C8780022F5
:10266000012804D0022804D0032806D103E0074A39
:1026700002E0002010BD064A521C8978002300F0B9
:102680002DFE012010BD0000D40000205C010020C0
:102690001D0000202DE9F84F4448007800287DD027
:1026A000434D042300262978B146481C2870414830
:1026B000007800EB400293405B1E0092994202DBDF
:1026C00085F8009001263C4A00241188FF2901D298
:1026D000491C1180394931F810E0374909888E4585
:1026E00000D101240020DFF8D8804FF0010ADFF884
:1026F000D4B044E0002276B11BF800105B46FF29FD
:1027000001D2491C195418F8001021B11BF80030EF
:102710008B4200D30122009918F8007002238B40ED
:1027200007FA03F1714502DA0FB1012300E000233B
:102730003CB133B1D5F810C00AFA00F141EA0C01FE
:1027400029612149095C8F420ED01BF800708F422D
:1027500008D3D5F810C00AFA00F747EA0C072F6132
:1027600085F8009008F800103AB123B92A690AFAEE
:1027700000F1114329610BF80090401CC0B21349CD
:1027800009788842B6D314B10B49A1F800902869A2
:10279000002808D06888002805D100E003E0BDE8E3
:1027A000F84FFFF751BEBDE8F88F0000B9000020D8
:1027B000DC000020BB000020180000201E350008AF
:1027C0001B0000201A0000201C00002026350008F5
:1027D00010B50A4809498078C97810B1084A81546F
:1027E00009E00020074A084B02E01154401CC0B227
:1027F0001C78A042F9D3012010BD0000D4000020B5
:102800001B0000201C00002026350008034810B5DE
:10281000807800F027FE012010BD0000D4000020C9
:102820000C4908B5C8780022012804D0022804D039
:10283000032806D103E0002008BD074A00E0074A4C
:10284000521C00230093CB88897800F00DFE0120F4
:1028500008BD0000D40000209D0100201D000020C4
:102860000B48C16941F40001C1614FF0E0214FF410
:102870008012C1F80021816941F00401816105499C
:1028800050110860034804491438FEF719B90000D4
:102890000010024014080140DC36000870B50F4BF0
:1028A00000F00F020E4C5B6803EB021293689289F2
:1028B00004EB4303C2F309040022651C04E033F86F
:1028C000046B21F8026B521CB2EB550FF7D34FF497
:1028D0004051FEF7DDF8204670BD000020000020CA
:1028E00000600040704700000648007810F01F0F9D
:1028F00001D00020704703481B3800F11301086025
:1029000001207047D40000207CB54249A1F11C058C
:102910000878A1F1080410F01F0002D0012873D13B
:102920005FE0CE783B483B491C383B4AC078897809
:10293000082E69D2DFE806F0680413426868082DA3
:102940003648206012204AE0117809B901285BD08E
:1029500018B1334820600A2041E03248FAE7127883
:102960000AB9012850D018B12F480090002008E083
:102970002E48FAE7009A137813B153881A4400924C
:10298000401C8142F6D100980178E1B32060408874
:1029900025E012780AB9012836D018B124480090F1
:1029A000002008E02348FAE7009A137813B153880F
:1029B0001A440092401C8142F6D1E4E71E48009080
:1029C000002005E0009B1A780AB11A440092401CCE
:1029D0008142F7D100980178A9B120600078019078
:1029E00005E001A9684600F02BF800280DD0A18869
:1029F000019881420CD9114980B2A0800978491E02
:102A0000084203D004E0FFE700207CBD01202871CC
:102A100001207CBDD400002017350008C235000815
:102A2000D5350008D435000842360008D6350008F0
:102A30004436000843360008463600081A350008B8
:102A400030B5164A154B164CD278164D1B79212AF3
:102A500002D0222A20D115E0227893421CD1124ABA
:102A60001378124A12780BB9012A15D042B1104AD4
:102A7000026010460F4A128810442860092008E0BE
:102A80000D4AF5E72078834206D10C4828600C48AF
:102A900000880860012030BD002030BDD400002037
:102AA0001B350008CC00002017350008BB000020B3
:102AB00042360008C0350008D63500089C350008AD
:102AC000BE3500080B48017801F01F0101290ED125
:102AD000A0F11C014A7852B100798978884206D267
:102AE000054908440349083908600120704700205F
:102AF00070470000D40000201500002070B51C486D
:102B00001B4C0078A4F1080410F01F000AD0184AEA
:102B1000A4F11403174D59781279012806D0022820
:102B200024D109E01248163820601DE0F1B19878F0
:102B300082421BD2002015E002F08F00020605D56C
:102B400000F00F064FF48032B24001E001228240D3
:102B500009B900070AD19868104207D0D868104018
:102B600000D0012028802560012070BD002070BDAC
:102B7000D40000201C01002070B5264B02461946E7
:102B80001878498810F01F00A3F11C0604D0012812
:102B900029D0022827D111E0012924D132B1012006
:102BA00000F01AFAF08840F0020005E0002000F082
:102BB00013FAF08820F00200F08029E0187900F084
:102BC0008F04200605D504F00F004FF480358540B2
:102BD00001E00125A540707828B1200703D0B06836
:102BE000284200D009B1002070BD2AB1204600F073
:102BF000C9F9F06828430AE03069284208D1204624
:102C0000FFF7AEF92046FFF76DFEF068A843F060CD
:102C1000012070BDD40000202DE9F05F5A48002645
:102C2000017811F01F0F7DD1574F80781C3FB146BE
:102C30004FF0010A4FF4803B002879D053480178C7
:102C40003846C07809B901286CD008B1504C68E00A
:102C5000504C66E06078022804D0042844D005284F
:102C60005DD143E048486179807881423AD17870FB
:102C70002079B87000204849484A02E001F80090E5
:102C8000401C13889842F9D30125B8460AFA05F08A
:102C9000D8F80810084202D02846FFF708FAD8F8FA
:102CA00008100BFA05F0084203D045F08000FFF74A
:102CB000FEF96D1C102DE9D34FF00110C8E902098F
:102CC0000120C8F81090FFF79DF9E0794006B8F8A8
:102CD000060002D540F0010001E020F00100A8F854
:102CE00006001CE060881BE0E67818E0BEB9A0781A
:102CF00000F08F05280604D505F00F010BFA01F04E
:102D000001E00AFA05F0B96801432046B960FFF70F
:102D100033F92846FFF7CEF9284600F01DF9207850
:102D2000044401E02AE003E02078002892D120E06A
:102D30004D4687F8019001245E46B9680AFA04F00E
:102D4000084202D02046FFF7B2F9B96806FA04F04B
:102D5000084203D044F08000FFF7A9F9641C102C4E
:102D6000EBD34FF00110C7E9020500203D61FFF7EA
:102D700049F9054879788078884202D00020BDE87A
:102D8000F09F0120FBE70000D40000201735000869
:102D900042360008D6350008150000201835000816
:102DA0002DE9F84F434800273E460078BA4600F028
:102DB0001F00B94601287BD13E491C3948780028BC
:102DC00073D0002000903C4802780846C0780AB9C9
:102DD00001286DD08B4608B1384C62E0384C60E079
:102DE0006078022804D0042809D0052857D118E0BB
:102DF00061799BF80100814251D0608850E02D48F4
:102E0000A778E67801794FF00009B94247D1807878
:102E1000B04244D1012000902A4810F807A0C655BE
:102E20003DE024490879B84239D1A07800F08F08F4
:102E30005FEA086005D508F00F004FF48035854043
:102E400002E0012505FA08F58878B04215D1DBF8D3
:102E5000081020462943CBF80810DBF80C10A943D2
:102E6000CBF80C10FFF788F84046FFF723F94046EF
:102E700000F072F849EA050911E056450FD119EA48
:102E8000050F0CD1DBF808104046A943CBF8081019
:102E9000DBF80C10A943CBF80C10FFF708F92078E9
:102EA0000444207800289BD10098BDE8F88FFFE704
:102EB0000020FAE7D4000020173500084236000849
:102EC000D6350008150000201B48002303601B486E
:102ED000006818B14FF40050410001E000200146A5
:102EE000084317490968002901D04FF4007140EAEE
:102EF000010002D04FF4807101E04FF0000140EA80
:102F00000100104940F41C40086010480E494FF081
:102F10004002036048684FF0C00302604FF0800237
:102F200082600B8048F2FF71C16009494FF448503C
:102F30000860084802607047445C00404C35000857
:102F400048350008405C004020000020505C0040F4
:102F5000005C00404C5C0040FDF788BDFEF7A4BF5C
:102F600010B5FFF797FBBDE81040FEF7A1BF0000CA
:102F7000002903D1024940F080000860704700003A
:102F80004C5C004041F21001FDF782BD0149002078
:102F9000FFF784BCD400002000221146802000F0FE
:102FA0001DB8000001490020FFF778BC1C0100207B
:102FB0000448016841F008010160016841F0040122
:102FC00001607047405C00400248016821F0080140
:102FD00001607047405C004070470000F0B5144F3E
:102FE000154606467A6800F00F0002EB0012114BFE
:102FF000126803EB420400236A1C04E031F802CBA0
:1030000044F804CB5B1CB3EB520FF7D3796801EBA8
:1030100000114D60084951F82000C0F3011001284B
:1030200003D030213046FDF733FD2846F0BD0000C7
:103030002000002000600040005C00402DE9F047C7
:103040003A4D2C6860050BD5FFF73EFF00F048FABB
:103050003748016809B1084680476FF480602860EE
:10306000200509D5FFF7A4FF3248016809B10846D9
:1030700080476FF400602860E00409D5FFF7A4FFE3
:103080002D48016809B1084680476FF480502860D8
:10309000A00507D52948016809B1084680476FF4A3
:1030A00000702860264E600407D5306810B1316882
:1030B000022088476FF480402860DFF88890224F14
:1030C000A00407D5306810B13168012088476FF43B
:1030D00000502860A8464146D8F80000020423D5D5
:1030E0006FF400420A6000F00F0509EB85063468B2
:1030F00020040CD540F68F702040306057F8251022
:1031000029B1200501D5022000E0042088472006CF
:10311000E1D548F60F700440346057F825100029B7
:10312000D9D008208847D6E7BDE8F087445C004046
:103130003C35000840350008443500084835000893
:103140004C350008005C004050350008064A074B2B
:1031500000211268B2FBF3F242430720B2FBF0F009
:10316000491C8142FCD970470000002040420F00FA
:1031700002E008C8121F08C1002AFAD17047704740
:10318000002001E001C1121F002AFBD1704700009E
:10319000FCF7ECFFFEF748FA4248016841F0807105
:1031A00001604148016841F0010101603F4F4FF467
:1031B00000763E603D1F74102C60FDF72FFC2E60E2
:1031C0000120FDF743FC00F07FF9012000F082F8B8
:1031D000DFF8DC8000208146C8F80C0014E0D8F845
:1031E0000C00401CC8F80C00012804D0052804D0AD
:1031F000142804D005E03E6003E02E6001E0C8F82A
:103200000C900A20FDF722FC00F05CF80028E6D0C4
:103210003E606420FDF71AFCC8F80C9042F2107969
:103220004FF0FF36C8F81090C8F8046037E000F09F
:10323000DBF848B13C60C8F81090FDF719FDD8F8EC
:103240000400401C09D00EE0D8F8100018B1401E50
:10325000C8F81000F1E72C60EFE7FEF71FFDC8F893
:103260000400401C09D098F80400FEF76BFAD8F867
:103270000410884201D1C8F80460D8F80800401C46
:1032800005D1FEF73BFAC8F80800401CCFD098F8EB
:103290000800FEF7D3FDD8F808108842C7D1C8F857
:1032A0000860C4E7FCED00E0001000E014080140F5
:1032B0005000002010B500F089F8BDE81040FEF77E
:1032C0001BBD000002484078002800D00120704754
:1032D000B8000020FEF7A0BE0020704770B515466C
:1032E000012822D10BB3012B1FD1114C2069E168B9
:1032F000884201D1A078B0B10E482169402200EB8C
:1033000081112846FCF70EFF2069401C20612169CD
:103310000020042900D120612169E268914200D196
:10332000A070402070BD01206070002070BD0000C2
:103330003C000020880500202DE9F04107461D488B
:1033400016460088824202DD0020BDE8F0811A485E
:1033500000780028F9D0194C01224FF00008E260F3
:1033600000E098B16288002AFBD1154D3246681CF6
:103370002F70FCF7D7FE6561A4F8048066801148C1
:10338000007801280BD86D1C65610BE0C4F80C8037
:10339000C4F81480A4F80480A4F80280D4E76088FC
:1033A000401C60800020FFF74FF8074800F80780B6
:1033B0000120CAE728350008B9000020DC00002001
:1033C0005C010020263500081A0000200548002175
:1033D000017041608160012242708170C1600161B1
:1033E000704700003C00002070B51C4CA06861686C
:1033F000884202D1207800282ED0194DE068A268BA
:1034000005EB8011A5F5807000EB8210FCF714FF2E
:10341000A068401C042800D10020A060A168626858
:103420000020914200D12070617841B16070E06865
:10343000402205EB80110020FFF77EFF0BE0E068E3
:10344000401C042800D10020E060E0682169884227
:1034500001D10120A070012070BD00003C000020BF
:10346000880500207047000070B5114602281CD165
:10347000002B1AD008780125072814D00F4C20788B
:1034800018B16068A26890420FD00D48626800EBE6
:1034900082101A46FCF746FE6068401C6060606857
:1034A000042803D004E00748057070BD0020606068
:1034B0006068A1688842F8D1257070BD3C0000208A
:1034C0008804002014000020044910B50020C870B2
:1034D000FFF7F0FEBDE81040FFF7C2B9B8000020CA
:1034E00006484FF0011201780548C18000210170A3
:1034F0004170C0E9022101617047000016350008E3
:10350000B80000200060031000600048010000487F
:10351000322E312E32000000030040020101010072
:10352000400040000400010140004000000102038F
:103530000300400040004000400000005D2F0008F4
:103540000000000000000000612F000800000000E3
:10355000BD200008092600089B1C00087D1C0008EF
:10356000000000000000000000000000000000005B
:10357000000000000000000000000000000000004B
:10358000000000000000000000000000000000003B
:103590001520000800000000000000000600FF09E0
:1035A00001A101150026FF0075089540090181025F
:1035B00095400901910295010901B102C000210065
:1035C000540012011001EF02014051C201F000014C
:1035D00001020301000009026B00030100803208B0
:1035E0000B000202020104090400000102020104AE
:1035F0000524001001052401030204240206052409
:103600000600010705820340000209040100020AC6
:103610000000050705030240000007058302400083
:103620000009040200020300000609210001000154
:103630002221000705810340000107050103400026
:1036400001000000000004030904080341005200C7
:103650004D0024034400410050004C0069006E00FE
:103660006B00200043004D005300490053002D0023
:103670004400410050001A0331003200330034008E
:103680003500360037003800410042004300440056
:103690001C0343004D005300490053002D0044001B
:1036A0004100500020004300440043001C0343003D
:1036B0004D005300490053002D00440041005000CC
:1036C0002000440043004900140343004D00530010
:1036D000490053002D0044004100500000800210BA
:1036E00008000348040003180800004804000048CC
:1036F00000030210FF870000FFFF000000E0000051
:1037000000100048243700080000002000010000DD
:1037100070310008243800080001002088090000EA
:103720008031000800A24A040000000000000000F0
:103730000102030406070809000000000000000061
:1037400000000000000000000060004000000000D9
:103750000000000000000000000000000000000069
:103760000000000000000000000000000000000059
:1037700000000000FFFFFFFF00000000000000004D
:103780000000000000000000020406080000000025
:1037900001020304010203040607080900000000F7
:1037A0000000000000000000000000000000000019
:1037B0000000000000000000000000000000000009
:1037C00000000000000000000000000000000000F9
:1037D00000000000000000000000000000000000E9
:1037E00000000000000000000000000000000000D9
:1037F00000000000000000000000000000000000C9
:1038000000000000000000000000000000000000B8
:1038100000000000000000000000000000000000A8
:0438200000000000A4
:0400000508000101ED
:00000001FF
